{
  "contractName": "BlockchainVoting",
  "abi": [
    {
      "inputs": [
        {
          "internalType": "string[]",
          "name": "candidateNames",
          "type": "string[]"
        }
      ],
      "stateMutability": "nonpayable",
      "type": "constructor"
    },
    {
      "anonymous": false,
      "inputs": [
        {
          "indexed": false,
          "internalType": "address",
          "name": "voter",
          "type": "address"
        },
        {
          "indexed": false,
          "internalType": "uint256",
          "name": "candidateId",
          "type": "uint256"
        }
      ],
      "name": "VoteCast",
      "type": "event"
    },
    {
      "anonymous": false,
      "inputs": [
        {
          "indexed": false,
          "internalType": "address",
          "name": "voter",
          "type": "address"
        }
      ],
      "name": "VoteInvalid",
      "type": "event"
    },
    {
      "anonymous": false,
      "inputs": [
        {
          "indexed": false,
          "internalType": "address",
          "name": "voter",
          "type": "address"
        }
      ],
      "name": "VoterRegistered",
      "type": "event"
    },
    {
      "inputs": [],
      "name": "admin",
      "outputs": [
        {
          "internalType": "address",
          "name": "",
          "type": "address"
        }
      ],
      "stateMutability": "view",
      "type": "function",
      "constant": true
    },
    {
      "inputs": [
        {
          "internalType": "uint256",
          "name": "",
          "type": "uint256"
        }
      ],
      "name": "candidates",
      "outputs": [
        {
          "internalType": "uint256",
          "name": "id",
          "type": "uint256"
        },
        {
          "internalType": "string",
          "name": "name",
          "type": "string"
        },
        {
          "internalType": "uint256",
          "name": "voteCount",
          "type": "uint256"
        }
      ],
      "stateMutability": "view",
      "type": "function",
      "constant": true
    },
    {
      "inputs": [
        {
          "internalType": "uint256",
          "name": "",
          "type": "uint256"
        }
      ],
      "name": "registeredVoters",
      "outputs": [
        {
          "internalType": "address",
          "name": "",
          "type": "address"
        }
      ],
      "stateMutability": "view",
      "type": "function",
      "constant": true
    },
    {
      "inputs": [],
      "name": "totalVotes",
      "outputs": [
        {
          "internalType": "uint256",
          "name": "",
          "type": "uint256"
        }
      ],
      "stateMutability": "view",
      "type": "function",
      "constant": true
    },
    {
      "inputs": [
        {
          "internalType": "address",
          "name": "",
          "type": "address"
        }
      ],
      "name": "voteStatus",
      "outputs": [
        {
          "internalType": "enum BlockchainVoting.VoteStatus",
          "name": "",
          "type": "uint8"
        }
      ],
      "stateMutability": "view",
      "type": "function",
      "constant": true
    },
    {
      "inputs": [
        {
          "internalType": "address",
          "name": "",
          "type": "address"
        }
      ],
      "name": "voters",
      "outputs": [
        {
          "internalType": "bool",
          "name": "isRegistered",
          "type": "bool"
        },
        {
          "internalType": "bool",
          "name": "hasVoted",
          "type": "bool"
        },
        {
          "internalType": "uint256",
          "name": "vote",
          "type": "uint256"
        }
      ],
      "stateMutability": "view",
      "type": "function",
      "constant": true
    },
    {
      "inputs": [
        {
          "internalType": "address",
          "name": "voter",
          "type": "address"
        }
      ],
      "name": "registerVoter",
      "outputs": [],
      "stateMutability": "nonpayable",
      "type": "function"
    },
    {
      "inputs": [
        {
          "internalType": "uint256",
          "name": "candidateId",
          "type": "uint256"
        }
      ],
      "name": "castVote",
      "outputs": [],
      "stateMutability": "nonpayable",
      "type": "function"
    },
    {
      "inputs": [],
      "name": "getCandidates",
      "outputs": [
        {
          "components": [
            {
              "internalType": "uint256",
              "name": "id",
              "type": "uint256"
            },
            {
              "internalType": "string",
              "name": "name",
              "type": "string"
            },
            {
              "internalType": "uint256",
              "name": "voteCount",
              "type": "uint256"
            }
          ],
          "internalType": "struct BlockchainVoting.Candidate[]",
          "name": "",
          "type": "tuple[]"
        }
      ],
      "stateMutability": "view",
      "type": "function",
      "constant": true
    },
    {
      "inputs": [
        {
          "internalType": "address",
          "name": "voter",
          "type": "address"
        }
      ],
      "name": "getVoteStatus",
      "outputs": [
        {
          "internalType": "enum BlockchainVoting.VoteStatus",
          "name": "",
          "type": "uint8"
        }
      ],
      "stateMutability": "view",
      "type": "function",
      "constant": true
    },
    {
      "inputs": [
        {
          "internalType": "uint256",
          "name": "candidateId",
          "type": "uint256"
        }
      ],
      "name": "getCandidateVotes",
      "outputs": [
        {
          "internalType": "uint256",
          "name": "",
          "type": "uint256"
        }
      ],
      "stateMutability": "view",
      "type": "function",
      "constant": true
    },
    {
      "inputs": [
        {
          "internalType": "address",
          "name": "voter",
          "type": "address"
        }
      ],
      "name": "detectDoubleVote",
      "outputs": [
        {
          "internalType": "string",
          "name": "",
          "type": "string"
        }
      ],
      "stateMutability": "view",
      "type": "function",
      "constant": true
    },
    {
      "inputs": [],
      "name": "getAdmin",
      "outputs": [
        {
          "internalType": "address",
          "name": "",
          "type": "address"
        }
      ],
      "stateMutability": "view",
      "type": "function",
      "constant": true
    },
    {
      "inputs": [],
      "name": "getVoterList",
      "outputs": [
        {
          "internalType": "address[]",
          "name": "",
          "type": "address[]"
        }
      ],
      "stateMutability": "view",
      "type": "function",
      "constant": true
    }
  ],
  "bytecode": "0x60806040523480156200001157600080fd5b5060405162001d4e38038062001d4e833981810160405281019062000037919062000313565b336000806101000a81548173ffffffffffffffffffffffffffffffffffffffff021916908373ffffffffffffffffffffffffffffffffffffffff16021790555060005b8151811015620001575760026040518060600160405280838152602001848481518110620000d1577f4e487b7100000000000000000000000000000000000000000000000000000000600052603260045260246000fd5b6020026020010151815260200160008152509080600181540180825580915050600190039060005260206000209060030201600090919091909150600082015181600001556020820151816001019080519060200190620001349291906200015f565b5060408201518160020155505080806200014e9062000464565b9150506200007a565b50506200053f565b8280546200016d906200042e565b90600052602060002090601f016020900481019282620001915760008555620001dd565b82601f10620001ac57805160ff1916838001178555620001dd565b82800160010185558215620001dd579182015b82811115620001dc578251825591602001919060010190620001bf565b5b509050620001ec9190620001f0565b5090565b5b808211156200020b576000816000905550600101620001f1565b5090565b60006200022662000220846200038c565b62000358565b9050808382526020820190508260005b858110156200026a57815185016200024f8882620002e6565b84526020840193506020830192505060018101905062000236565b5050509392505050565b60006200028b6200028584620003bb565b62000358565b905082815260208101848484011115620002a457600080fd5b620002b1848285620003f8565b509392505050565b600082601f830112620002cb57600080fd5b8151620002dd8482602086016200020f565b91505092915050565b600082601f830112620002f857600080fd5b81516200030a84826020860162000274565b91505092915050565b6000602082840312156200032657600080fd5b600082015167ffffffffffffffff8111156200034157600080fd5b6200034f84828501620002b9565b91505092915050565b6000604051905081810181811067ffffffffffffffff8211171562000382576200038162000510565b5b8060405250919050565b600067ffffffffffffffff821115620003aa57620003a962000510565b5b602082029050602081019050919050565b600067ffffffffffffffff821115620003d957620003d862000510565b5b601f19601f8301169050602081019050919050565b6000819050919050565b60005b8381101562000418578082015181840152602081019050620003fb565b8381111562000428576000848401525b50505050565b600060028204905060018216806200044757607f821691505b602082108114156200045e576200045d620004e1565b5b50919050565b60006200047182620003ee565b91507fffffffffffffffffffffffffffffffffffffffffffffffffffffffffffffffff821415620004a757620004a6620004b2565b5b600182019050919050565b7f4e487b7100000000000000000000000000000000000000000000000000000000600052601160045260246000fd5b7f4e487b7100000000000000000000000000000000000000000000000000000000600052602260045260246000fd5b7f4e487b7100000000000000000000000000000000000000000000000000000000600052604160045260246000fd5b6117ff806200054f6000396000f3fe608060405234801561001057600080fd5b50600436106100ea5760003560e01c8063521b0dcc1161008c578063895972d411610066578063895972d414610273578063a3ec138d146102a3578063b28d92ae146102d5578063f851a440146102f3576100ea565b8063521b0dcc146101f55780636e9960c314610225578063866163c014610243576100ea565b80632436e06b116100c85780632436e06b1461015b5780633477ee2e1461018b57806338db6dd3146101bd5780633eb76b9c146101d9576100ea565b806304308eb8146100ef57806306a49fce1461011f5780630d15fd771461013d575b600080fd5b61010960048036038101906101049190610f5a565b610311565b6040516101169190611407565b60405180910390f35b6101276104aa565b6040516101349190611393565b60405180910390f35b6101456105af565b60405161015291906114c9565b60405180910390f35b61017560048036038101906101709190610f83565b6105b5565b604051610182919061132d565b60405180910390f35b6101a560048036038101906101a09190610f83565b6105f4565b6040516101b4939291906114e4565b60405180910390f35b6101d760048036038101906101d29190610f5a565b6106b6565b005b6101f360048036038101906101ee9190610f83565b61091f565b005b61020f600480360381019061020a9190610f5a565b610cff565b60405161021c91906113ec565b60405180910390f35b61022d610d55565b60405161023a919061132d565b60405180910390f35b61025d60048036038101906102589190610f83565b610d7e565b60405161026a91906114c9565b60405180910390f35b61028d60048036038101906102889190610f5a565b610e1a565b60405161029a91906113ec565b60405180910390f35b6102bd60048036038101906102b89190610f5a565b610e3a565b6040516102cc939291906113b5565b60405180910390f35b6102dd610e7e565b6040516102ea9190611371565b60405180910390f35b6102fb610f0c565b604051610308919061132d565b60405180910390f35b6060600160008373ffffffffffffffffffffffffffffffffffffffff1673ffffffffffffffffffffffffffffffffffffffff16815260200190815260200160002060000160019054906101000a900460ff16801561042a57506001808111156103a3577f4e487b7100000000000000000000000000000000000000000000000000000000600052602160045260246000fd5b600460008473ffffffffffffffffffffffffffffffffffffffff1673ffffffffffffffffffffffffffffffffffffffff16815260200190815260200160002060009054906101000a900460ff166001811115610428577f4e487b7100000000000000000000000000000000000000000000000000000000600052602160045260246000fd5b145b1561046c576040518060400160405280601481526020017f446f75626c6520566f746520446574656374656400000000000000000000000081525090506104a5565b6040518060400160405280600a81526020017f56616c696420566f74650000000000000000000000000000000000000000000081525090505b919050565b60606002805480602002602001604051908101604052809291908181526020016000905b828210156105a657838290600052602060002090600302016040518060600160405290816000820154815260200160018201805461050b906116b7565b80601f0160208091040260200160405190810160405280929190818152602001828054610537906116b7565b80156105845780601f1061055957610100808354040283529160200191610584565b820191906000526020600020905b81548152906001019060200180831161056757829003601f168201915b50505050508152602001600282015481525050815260200190600101906104ce565b50505050905090565b60035481565b600581815481106105c557600080fd5b906000526020600020016000915054906101000a900473ffffffffffffffffffffffffffffffffffffffff1681565b6002818154811061060457600080fd5b906000526020600020906003020160009150905080600001549080600101805461062d906116b7565b80601f0160208091040260200160405190810160405280929190818152602001828054610659906116b7565b80156106a65780601f1061067b576101008083540402835291602001916106a6565b820191906000526020600020905b81548152906001019060200180831161068957829003601f168201915b5050505050908060020154905083565b60008054906101000a900473ffffffffffffffffffffffffffffffffffffffff1673ffffffffffffffffffffffffffffffffffffffff163373ffffffffffffffffffffffffffffffffffffffff1614610744576040517f08c379a000000000000000000000000000000000000000000000000000000000815260040161073b90611469565b60405180910390fd5b600160008273ffffffffffffffffffffffffffffffffffffffff1673ffffffffffffffffffffffffffffffffffffffff16815260200190815260200160002060000160009054906101000a900460ff16156107d4576040517f08c379a00000000000000000000000000000000000000000000000000000000081526004016107cb90611429565b60405180910390fd5b60405180606001604052806001151581526020016000151581526020016000815250600160008373ffffffffffffffffffffffffffffffffffffffff1673ffffffffffffffffffffffffffffffffffffffff16815260200190815260200160002060008201518160000160006101000a81548160ff02191690831515021790555060208201518160000160016101000a81548160ff021916908315150217905550604082015181600101559050506005819080600181540180825580915050600190039060005260206000200160009091909190916101000a81548173ffffffffffffffffffffffffffffffffffffffff021916908373ffffffffffffffffffffffffffffffffffffffff1602179055507fb6be2187d059cc2a55fe29e0e503b566e1e0f8c8780096e185429350acffd3dd81604051610914919061132d565b60405180910390a150565b600160003373ffffffffffffffffffffffffffffffffffffffff1673ffffffffffffffffffffffffffffffffffffffff16815260200190815260200160002060000160009054906101000a900460ff166109ae576040517f08c379a00000000000000000000000000000000000000000000000000000000081526004016109a590611489565b60405180910390fd5b600160003373ffffffffffffffffffffffffffffffffffffffff1673ffffffffffffffffffffffffffffffffffffffff16815260200190815260200160002060000160019054906101000a900460ff1615610a3e576040517f08c379a0000000000000000000000000000000000000000000000000000000008152600401610a3590611449565b60405180910390fd5b6002805490508110610a85576040517f08c379a0000000000000000000000000000000000000000000000000000000008152600401610a7c906114a9565b60405180910390fd5b600160003373ffffffffffffffffffffffffffffffffffffffff1673ffffffffffffffffffffffffffffffffffffffff16815260200190815260200160002060000160019054906101000a900460ff1615610ba4576001600460003373ffffffffffffffffffffffffffffffffffffffff1673ffffffffffffffffffffffffffffffffffffffff16815260200190815260200160002060006101000a81548160ff02191690836001811115610b63577f4e487b7100000000000000000000000000000000000000000000000000000000600052602160045260246000fd5b02179055507f0b2935f680094c082d61f4bcc854842c2987e455715c4b1e14367e1a2870f91d33604051610b97919061132d565b60405180910390a1610cfc565b80600160003373ffffffffffffffffffffffffffffffffffffffff1673ffffffffffffffffffffffffffffffffffffffff1681526020019081526020016000206001018190555060018060003373ffffffffffffffffffffffffffffffffffffffff1673ffffffffffffffffffffffffffffffffffffffff16815260200190815260200160002060000160016101000a81548160ff021916908315150217905550600160028281548110610c81577f4e487b7100000000000000000000000000000000000000000000000000000000600052603260045260246000fd5b90600052602060002090600302016002016000828254610ca191906115c1565b92505081905550600160036000828254610cbb91906115c1565b925050819055507fa36cc2bebb74db33e9f88110a07ef56e1b31b24b4c4f51b54b1664266e29f45b3382604051610cf3929190611348565b60405180910390a15b50565b6000600460008373ffffffffffffffffffffffffffffffffffffffff1673ffffffffffffffffffffffffffffffffffffffff16815260200190815260200160002060009054906101000a900460ff169050919050565b60008060009054906101000a900473ffffffffffffffffffffffffffffffffffffffff16905090565b60006002805490508210610dc7576040517f08c379a0000000000000000000000000000000000000000000000000000000008152600401610dbe906114a9565b60405180910390fd5b60028281548110610e01577f4e487b7100000000000000000000000000000000000000000000000000000000600052603260045260246000fd5b9060005260206000209060030201600201549050919050565b60046020528060005260406000206000915054906101000a900460ff1681565b60016020528060005260406000206000915090508060000160009054906101000a900460ff16908060000160019054906101000a900460ff16908060010154905083565b60606005805480602002602001604051908101604052809291908181526020018280548015610f0257602002820191906000526020600020905b8160009054906101000a900473ffffffffffffffffffffffffffffffffffffffff1673ffffffffffffffffffffffffffffffffffffffff1681526020019060010190808311610eb8575b5050505050905090565b60008054906101000a900473ffffffffffffffffffffffffffffffffffffffff1681565b600081359050610f3f8161179b565b92915050565b600081359050610f54816117b2565b92915050565b600060208284031215610f6c57600080fd5b6000610f7a84828501610f30565b91505092915050565b600060208284031215610f9557600080fd5b6000610fa384828501610f45565b91505092915050565b6000610fb88383610fd8565b60208301905092915050565b6000610fd083836112bf565b905092915050565b610fe181611617565b82525050565b610ff081611617565b82525050565b600061100182611542565b61100b818561157d565b935061101683611522565b8060005b8381101561104757815161102e8882610fac565b975061103983611563565b92505060018101905061101a565b5085935050505092915050565b600061105f8261154d565b611069818561158e565b93508360208202850161107b85611532565b8060005b858110156110b757848403895281516110988582610fc4565b94506110a383611570565b925060208a0199505060018101905061107f565b50829750879550505050505092915050565b6110d281611629565b82525050565b6110e181611672565b82525050565b60006110f282611558565b6110fc818561159f565b935061110c818560208601611684565b61111581611776565b840191505092915050565b600061112b82611558565b61113581856115b0565b9350611145818560208601611684565b61114e81611776565b840191505092915050565b6000611166601b836115b0565b91507f566f74657220697320616c7265616479207265676973746572656400000000006000830152602082019050919050565b60006111a66017836115b0565b91507f566f7465722068617320616c726561647920766f7465640000000000000000006000830152602082019050919050565b60006111e66022836115b0565b91507f4f6e6c792061646d696e2063616e20706572666f726d2074686973206163746960008301527f6f6e0000000000000000000000000000000000000000000000000000000000006020830152604082019050919050565b600061124c6017836115b0565b91507f566f746572206973206e6f7420726567697374657265640000000000000000006000830152602082019050919050565b600061128c6014836115b0565b91507f496e76616c69642063616e6469646174652049440000000000000000000000006000830152602082019050919050565b60006060830160008301516112d7600086018261130f565b50602083015184820360208601526112ef82826110e7565b9150506040830151611304604086018261130f565b508091505092915050565b61131881611668565b82525050565b61132781611668565b82525050565b60006020820190506113426000830184610fe7565b92915050565b600060408201905061135d6000830185610fe7565b61136a602083018461131e565b9392505050565b6000602082019050818103600083015261138b8184610ff6565b905092915050565b600060208201905081810360008301526113ad8184611054565b905092915050565b60006060820190506113ca60008301866110c9565b6113d760208301856110c9565b6113e4604083018461131e565b949350505050565b600060208201905061140160008301846110d8565b92915050565b600060208201905081810360008301526114218184611120565b905092915050565b6000602082019050818103600083015261144281611159565b9050919050565b6000602082019050818103600083015261146281611199565b9050919050565b60006020820190508181036000830152611482816111d9565b9050919050565b600060208201905081810360008301526114a28161123f565b9050919050565b600060208201905081810360008301526114c28161127f565b9050919050565b60006020820190506114de600083018461131e565b92915050565b60006060820190506114f9600083018661131e565b818103602083015261150b8185611120565b905061151a604083018461131e565b949350505050565b6000819050602082019050919050565b6000819050602082019050919050565b600081519050919050565b600081519050919050565b600081519050919050565b6000602082019050919050565b6000602082019050919050565b600082825260208201905092915050565b600082825260208201905092915050565b600082825260208201905092915050565b600082825260208201905092915050565b60006115cc82611668565b91506115d783611668565b9250827fffffffffffffffffffffffffffffffffffffffffffffffffffffffffffffffff0382111561160c5761160b6116e9565b5b828201905092915050565b600061162282611648565b9050919050565b60008115159050919050565b600081905061164382611787565b919050565b600073ffffffffffffffffffffffffffffffffffffffff82169050919050565b6000819050919050565b600061167d82611635565b9050919050565b60005b838110156116a2578082015181840152602081019050611687565b838111156116b1576000848401525b50505050565b600060028204905060018216806116cf57607f821691505b602082108114156116e3576116e2611747565b5b50919050565b7f4e487b7100000000000000000000000000000000000000000000000000000000600052601160045260246000fd5b7f4e487b7100000000000000000000000000000000000000000000000000000000600052602160045260246000fd5b7f4e487b7100000000000000000000000000000000000000000000000000000000600052602260045260246000fd5b6000601f19601f8301169050919050565b6002811061179857611797611718565b5b50565b6117a481611617565b81146117af57600080fd5b50565b6117bb81611668565b81146117c657600080fd5b5056fea26469706673582212205daecd276aa70713fe18c9230cf6b8c60a1e4d553ba7a4f2bc7268b0bac7e1eb64736f6c63430008000033",
  "immutableReferences": {},
  "source": "// SPDX-License-Identifier: MIT\r\npragma solidity ^0.8.0;\r\n\r\ncontract BlockchainVoting {\r\n    struct Voter {\r\n        bool isRegistered;\r\n        bool hasVoted;\r\n        uint vote;\r\n    }\r\n\r\n    struct Candidate {\r\n        uint id;\r\n        string name;\r\n        uint voteCount;\r\n    }\r\n\r\n    address public admin;\r\n    mapping(address => Voter) public voters;\r\n    Candidate[] public candidates;\r\n    uint public totalVotes;\r\n\r\n    enum VoteStatus { Valid, DoubleVote }\r\n    mapping(address => VoteStatus) public voteStatus;\r\n\r\n    // List of registered voters' addresses\r\n    address[] public registeredVoters;\r\n\r\n    event VoterRegistered(address voter);\r\n    event VoteCast(address voter, uint candidateId);\r\n    event VoteInvalid(address voter);\r\n\r\n    modifier onlyAdmin() {\r\n        require(msg.sender == admin, \"Only admin can perform this action\");\r\n        _;\r\n    }\r\n\r\n    modifier onlyRegistered() {\r\n        require(voters[msg.sender].isRegistered, \"Voter is not registered\");\r\n        _;\r\n    }\r\n\r\n    constructor(string[] memory candidateNames) {\r\n        admin = msg.sender;\r\n        for (uint i = 0; i < candidateNames.length; i++) {\r\n            candidates.push(Candidate({\r\n                id: i,\r\n                name: candidateNames[i],\r\n                voteCount: 0\r\n            }));\r\n        }\r\n    }\r\n\r\n    // Register a voter\r\n    function registerVoter(address voter) external onlyAdmin {\r\n        require(!voters[voter].isRegistered, \"Voter is already registered\");\r\n        voters[voter] = Voter({\r\n            isRegistered: true,\r\n            hasVoted: false,\r\n            vote: 0\r\n        });\r\n        registeredVoters.push(voter);  // Add to registered voters list\r\n        emit VoterRegistered(voter);\r\n    }\r\n\r\n    // Cast a vote\r\n    function castVote(uint candidateId) external onlyRegistered {\r\n        require(!voters[msg.sender].hasVoted, \"Voter has already voted\");\r\n        require(candidateId < candidates.length, \"Invalid candidate ID\");\r\n\r\n        // Check for double voting\r\n        if (voters[msg.sender].hasVoted) {\r\n            voteStatus[msg.sender] = VoteStatus.DoubleVote;\r\n            emit VoteInvalid(msg.sender);\r\n            return;\r\n        }\r\n\r\n        voters[msg.sender].vote = candidateId;\r\n        voters[msg.sender].hasVoted = true;\r\n        candidates[candidateId].voteCount += 1;\r\n        totalVotes += 1;\r\n\r\n        emit VoteCast(msg.sender, candidateId);\r\n    }\r\n\r\n    // Get candidates' details\r\n    function getCandidates() external view returns (Candidate[] memory) {\r\n        return candidates;\r\n    }\r\n\r\n    // Get vote status of a voter\r\n    function getVoteStatus(address voter) external view returns (VoteStatus) {\r\n        return voteStatus[voter];\r\n    }\r\n\r\n    // Get total votes for a candidate\r\n    function getCandidateVotes(uint candidateId) external view returns (uint) {\r\n        require(candidateId < candidates.length, \"Invalid candidate ID\");\r\n        return candidates[candidateId].voteCount;\r\n    }\r\n\r\n    // Fungsi untuk menangani deteksi suara ganda\r\n    function detectDoubleVote(address voter) public view returns (string memory) {\r\n        // Periksa status suara untuk pemilih\r\n        if (voters[voter].hasVoted && voteStatus[voter] == VoteStatus.DoubleVote) {\r\n            return \"Double Vote Detected\";\r\n        } else {\r\n            return \"Valid Vote\";\r\n        }\r\n    }\r\n\r\n    // Function to retrieve the admin address\r\n    function getAdmin() external view returns (address) {\r\n        return admin;\r\n    }\r\n\r\n    // Function to get the list of registered voters\r\n    function getVoterList() external view returns (address[] memory) {\r\n        return registeredVoters;\r\n    }\r\n\r\n}\r\n",
  "sourcePath": "C:\\project\\video smester3\\Blockchain\\App\\smart_contracts\\contracts\\BlockchainVoting.sol",
  "compiler": {
    "name": "solc",
    "version": "0.8.0+commit.c7dfd78e.Emscripten.clang"
  },
  "schemaVersion": "3.4.16",
  "updatedAt": "2024-11-21T07:51:21.271Z",
  "networkType": "ethereum",
  "devdoc": {
    "kind": "dev",
    "methods": {},
    "version": 1
  },
  "userdoc": {
    "kind": "user",
    "methods": {},
    "version": 1
  }
}